Httt   000000000536
T0000001D4B25024B20D04B21724B24BD4B20C74B21024B2311AC0101005857A518    
T00001D1D4B20B64B20F14B23DD2900583320350320591900010F20532900093320    
T00003A1D414B22E8AC0101004F57A4EF4B208D4B20C84B23B429004F3320150320    
T0000571D301900010F202A3F2FB10100584B20363F200601004F4B202D01008B4B    
T0000741D203C4B202A3F20090100914B20304B201E3F2FFD0000002077696E7300    
T0000911D497420697320612074696500DF24A14F00000E249C01000ADF24950224    
T0000AE1D934F00000F201E52201B4100FF29000033200FDF247D03200C1900010F    
T0000CB0820063F2FE54F0000                                              
T0000D61D1624694B24320E24634B242C0100FD4B2FCA0101024B2FC44B242F0224    
T0000F31D4E4B24290A24484F00001B5B324A001B5B303B3048004D45524C4A414B    
T0001101D00139B8116242B4B23F40E24254B23EE12241F4B23E8B41053A40A4B22    
T00012D1DAD010001900151007CDF240853A3F94B229C010001900151007CDF23F7    
T00014A1D53A3E84B228B01000190014B2F4B010008A0103720064B22543F2FC24B    
T0001671D23B70623D64B23B10223D04B23AB0A23CA4F00001623C44B238D0E23BE    
T0001841D4B23871223B84B23818623B24B237B01021C4B2F194B2F070102344B2F    
T0001A11D104B2EFE4B2EFB010030B41075000157A382905090510F2169AC102900    
T0001BE1D090321613B2FEB4B2F4C4B2ED80102594B2EE14B2ECF0102804B2ED84B    
T0001DB1D2EC60102974B2ECF4B2EBD0102C34B2EC64B2EB40102EB4B2EBD4B2EAB    
T0001F81D01030B4B2EB4DB233F4B231C76233B4B23160623354B231002232F4B23    
T0002151D0A0A23294F000057656C636F6D6520746F205469632054616320546F65    
T0002321D2100426F6172642063656C6C7320617265206E756D6265726564206173    
T00024F1D20666F6C6C6F77733A005768656E2070726F6D707465642C7479706520    
T00026C1D696E20612063656C6C206E756D62657220746F00706C61636520796F75    
T0002891D7220746F6B656E207468657265005768656E20656E746572696E672063    
T0002A61D656C6C206E756D62657220504C4541534520656E746572206F6E6C7900    
T0002C31D6F6E65206469676974206F7220796F752077696C6C20627265616B2074    
T0002E01D68652070726F6772616D00506C617965722031206973205820616E6420    
T0002FD1D706C617965722032206973204F00507265737320454E54455220746F20    
T00031A09636F6E74696E756500                                            
T0003261D1622194B21E201037A4B2D80B400DB22090E2208DB2203022202290030    
T0003431D3B20192900383720131D0030AC0153A1E129002037200EAC103F201201    
T0003601D03904B2D4D3F2FC401039F4B2D443F2FBB4B21AC0A21CB4F0000456E74    
T00037D1D657220612064696769742028302D38293A2000496E76616C696420696E    
T00039A1D7075742000537061636520697320616C72656164792074616B656E2000    
T0003B71D1621884B21510103CF4B2CEF4B2CDD4B21570A21764F00002D2D2D2D2D    
T0003D41D2D2D2D2D2D2D001621644B212D57201E010020DF2157532015DF215101    
T0003F1110020DF214B5320094B21240A21434F0000                            
T0004031D16213C4B21057E21364B20FF8621304B20F912212A4B20F30104A80F20    
T0004201D9F02209C0F209CB4000F209A07209753A091AC0503208F1900010F2089    
T00043D1DAC5153A0F3AC0429002033202E07207953A073AC050320711900010F20    
T00045A1D6BAC5153A0D5A0043720133B201003205B2900033B2FD9B400AC403F20    
T0004771D150320451900030F203F1D04A82900183B2F970100204B20900620AF4B    
T0004941D208A7620A94B20846E20A34B207E0A209D4F0000000102030405060708    
T0004B11D0003060104070205080004080604020000010000010000011620764B20    
T0004CE1D3F0E20704B203912206A4B2033B41001002057A0520100019001010009    
T0004EB1DA0103B2FED4B202D06204C4B20270220464B20210A20404F0000010545    
T0005081D0F20374F00000F202103202E1900030F20280320154F00000F200F0320    
T0005250D1C1D00030F20160320034F0000                                    
T00053509202020202020202020                                            
T000540020001                                                          
E000000

